:020000040800F2
:10000000002000209517000893170008911700089A
:1000100000000000000000000000000000000000E0
:10002000000000000000000000000000931700081E
:10003000000000000000000093170008A104000861
:1000400091170008911700089117000891170008F0
:1000500091170008911700089117000891170008E0
:1000600091170008911700089117000891170008D0
:1000700091170008911700089117000891170008C0
:1000800091170008911700089117000891170008B0
:1000900091170008911700089117000891170008A0
:1000A0009117000891170008911700089117000890
:1000B0009117000891170008911700089117000880
:1000C0004A2D4C696E6B204F422D53544D333246AE
:1000D0003037322D3132384B422D436F7274657890
:1000E0004D20636F6D70696C6564204665622031D8
:1000F0003020323031362042544C20202020200045
:10010000436F7079726967687420323030332D32F2
:10011000303136205345474745523A207777772E7E
:100120007365676765722E636F6D000000000000E5
:100130009F02BACEF0B5104B104D04001D60012691
:1001400013001F2552080ED1AB400D4A1B0C136043
:10015000E9220C4B89081A6089000B4B09188C4264
:1001600007D11868F0BD17005B0037403B43013DE5
:10017000E8E704CC1A60F2E71430024021100000D6
:1001800010300240083002400030024013B5084BE6
:100190000222009381214023040000F090FD0222FE
:1001A000044B110000932000402300F088FD13BD94
:1001B000B90100084902000870B50C4C226A002AF7
:1001C0000ED0656A2B00402D00D94023EE1A521B39
:1001D0009BB2666200F093FD3F2D01D8002323629D
:1001E000E368002B01D00123236170BD14000020BF
:1001F000F7B514000D0000266408013C07006400F8
:1002000000F0FAFBAB1E64190193019B9C4201D1E3
:100210003000FEBD23880B487A1B99B21219834225
:1002200009D113888B4206D01188200089B200F0D2
:10023000B5FB023CE9E7238812889B1A5A1E9341BA
:100240001E43F6E7FFFF0000F7B58027534E544DDD
:1002500032683F01BB1A9BB25219009000F056FD64
:100260003368C418012C34D1002333602B78012B60
:1002700002D0062B10D0F7BD70230224494A136028
:10028000494A5362494B703313628121454A0098B1
:10029000A3B200F034FDEEE700F0AEFB444D0122C6
:1002A000444B5242EB18291F02E01868043B0240FD
:1002B0008B42FAD1531C02D0280000F083FB80232C
:1002C0001B01ED183C4B9D42E9D10022354B1A60D1
:1002D000DBE73460022C53D100216A782B781202BC
:1002E0001A433160304B062A06D02E48D96101608E
:1002F00032498A1A9A61BEE72D4A9869904206D11E
:100300002D4A59619A61D0225202DA61B3E7012481
:10031000244B1C60B9E7B3690193294BFB18F361C7
:100320003368002B16D1214B264A9C1803239C438B
:10033000254B1C1B002C0ADD244B2B221B49181BB0
:1003400001F014FD002819D10122174B5A60012237
:10035000154B1A60144C6368002B0AD08022019B55
:100360001201D91B2800FFF743FF0E4B1A681043F8
:100370001860E369002B00D07DE70AE0013CD9E773
:10038000BC4200D077E700233360074EF7699F42F5
:10039000C1D10124B460F46077E7C0463C08002076
:1003A0003C0000204409002014000020C000000888
:1003B00000600008FC07000000000208004001087F
:1003C00000F8FFFFFFFFFFF7D5070000110800202E
:1003D000234BF7B501001A002031047814704478DB
:1003E000547084789470C4780430D4700432884295
:1003F000F3D108261B4F1C49D87F1A7F0190072094
:100400003040844607205D7F9C7F06421ED1485DB8
:100410008A5C844601980D5D0C5C14480192F208D8
:10042000825C604642401878013642403A705A7801
:1004300001986A407A709A785440BC70DA78043334
:100440005040F87004373C2ED6D1F7BD60460428E2
:10045000E9D101988A5C085C4D5D0C5D0190E2E792
:1004600040080020600800207C220008712200085B
:10047000F0B50F00000110370A000023074C0519E2
:10048000EC5C16780133744014700132042BF7D100
:1004900004310430B942EFD1F0BDC046400800201D
:1004A00010B50F490F4C0B682268D21A102A06D9D2
:1004B000902010330B60C005012100F0B3FA0A4907
:1004C00022680B68D21A112A06D9902011330B60CA
:1004D000C005012100F0A6FA23680133236010BD96
:1004E00048090020400900204C0900201FB528229F
:1004F00000210B4801F0B0FC80230293094B0A4A0B
:10050000019303230949009309480A4B00F0A6FB15
:10051000094B0A49186001F03DF805B000BDC0461E
:100520001400002050090020C0230008CD2300083B
:100530000024000800000020D00900208D010008E0
:1005400010B50C00FFF744FF2300054A0C33043CB0
:10055000A34200D110BD1968043A5160043BF7E78B
:100560003C090020F0B5040089B006914649059089
:10057000059B069AE31A9A4200D97CE009B0F0BDC7
:10058000E25CC85C4240E254013BF9D22100002009
:10059000FFF76EFF012523003C48261D19001A00B5
:1005A00010311778C75D177004329142F9D10133C9
:1005B0009E42F3D1627963786270627A6271627B83
:1005C00063736272A27AA378A270A27BA372A379EA
:1005D000A271E27BA373E378E270E27AE273E279DC
:1005E000E371E2720E2D48D02200230010320792F0
:1005F0001A785E78110071400F0001929A78029289
:100600000298DA780392424057400492CA091000D7
:100610001B225043490041400198784041401970E5
:10062000310002987E404140C80950434900414092
:1006300071401600597004990298C9095143049AEF
:10064000784052004A40424003999A70019A4A40C9
:10065000D109714352004A4003994F407A40DA7001
:10066000079A04339A42C3D1280021000135FFF7CD
:10067000FFFEEDB28FE7102386E721002800FFF789
:10068000F7FE2100103473E7300900207C220008B7
:10069000802310B5CCB05B000CAA013B24D22023F0
:1006A00004AC013B23D210220021684601F0D4FBA8
:1006B00069462000FFF744FF80210CA84900FFF79E
:1006C00051FF0E4B0E4AE1211A6000230D4A1360C0
:1006D0000D4A11600D4A23310CA8C01804338B4217
:1006E00009D110684CB010BDC1189954D5E702006B
:1006F000DA40E254D5E700681060EDE714300240BC
:10070000B71DC104103002400830024000300240E2
:10071000F0B50125454C4648A54402AA454B46493B
:100720006D4204AC80181A68C250043B15408B42DD
:10073000F9D16B1C27D023000021082201263F4855
:100740003F4D1F6A874203D15F6AAF4200D131003B
:1007500004321033402AF4D1002905D0394800F082
:1007600031F9394B9D44F0BD0498431CF9D06368BE
:100770000133F6D1FFF78CFF04223449606005A8ED
:10078000FFF736FDEDE7324A324B703211883248BE
:100790004B43113303935288102192B2FFF7CAFCE6
:1007A000039BC0180490FFF773FF2C4B2C4E019352
:1007B000002360600CA8019A1278002A27D1013228
:1007C0002049FF322000FFF713FD264902AA264BDD
:1007D00089181A68CA501540164A043B9342F8D14A
:1007E0006B1CBED1802322005B0023808A32FA2159
:1007F000138800231180518853801371013A1370BC
:10080000393A13708022200018491201B8E7317874
:10081000C7188C46514039700133944501D10023EB
:100820001030019A013601320192C4E7ECF7FFFF64
:1008300008C1FFF7FC3F0008FC3E000852657365E5
:100840007400FFFF003F000814080000043F000888
:10085000C000000840420F00ACF7FF1FDF23000874
:100860007C22000808C0FFF7FC4700080040000891
:1008700010B5114CA368002B03D0FFF749FF0023EC
:10088000A3602369002B12D00C4A116813685B1A0D
:10089000C72BFBD90A4A0B4913680B40136080230E
:1008A0001B051B6883F30888074B1B689847074B99
:1008B000186800F0FDF910BD140000204009002068
:1008C000585C0040FF7FFFFF04000008D0090020B3
:1008D00070B52848284C00F0A5F9284800F0A2F986
:1008E00000F07EF9216880230A005B051A40194256
:1008F00013D1D021224D49022800FFF71BFC00280C
:100900000BD11E4800F09CF91A4800F099F92B68A9
:1009100083F308881B4B1B689847802322685B047D
:10092000134323609020012300221900C00500F02A
:1009300081F80022902011000123C00500F09AF8F0
:1009400090200121C00500F06AF8FA210E4B8900C1
:10095000186801F00DFB013800F060FF042000F082
:1009600065FF00F06DFF00F073FFFFF7BFFDFFF7BD
:100970007FFFFCE786020000241002409102000085
:1009800000600008046000080C000020024B18689A
:10099000352318407047C0460C200240F8B50126A8
:1009A00005000F00064C00F033F823683343236042
:1009B0002F8000F02DF82368B3432360F8BDC046B4
:1009C0001020024070B502250600094C00F020F806
:1009D00023682B432360074B1E6040232268134388
:1009E000236000F015F82368AB43236070BDC04658
:1009F0001020024014200240024B034A1A60034AAE
:100A00001A6070470420024023016745AB89EFCD8F
:100A100010B50124FFF7BAFF2042FBD110BD090435
:100A200081617047426913000B401B0491431943D5
:100A300081617047F0B585B00191032700210292D2
:100A400003930268C368039C01250C412C420AD021
:100A50003D004C00A540019EAA43AB43029DA64029
:100A6000A54032432B4301311029ECD10260C36011
:100A700005B0F0BDF7B50192012916D141681943BF
:100A8000002401260327416081681D00254135426D
:100A900006D03A006500AA409143019AAA4011434A
:100AA0000134102CF1D18160F7BD41689943E7E72B
:100AB000002300B506280AD8013301F04FFA0A0EC8
:100AC0001012181604000B4A1068400C034018005E
:100AD00000BD084A10684008F8E7074AFAE7064AE6
:100AE000F2E7054A1068400EF0E7044AF2E7044ACC
:100AF000F0E7C046341002400010024020100240CF
:100B00002410024010B504002000FFF7D1FF002898
:100B1000FAD010BD00B506280BD801F01FFA0B0F54
:100B20001117151304000C4A802311685B020B4354
:100B3000136000BD084A01231168F8E7074AFAE785
:100B4000064AF1E7064AF6E7064AF4E78023034A35
:100B50005B041168EBE7C04634100240001002400D
:100B60002010024024100240013800B5052812D898
:100B700001F0F4F903091211111903210C4A136849
:100B80008B43136007E0032209490B6893431A0063
:100B9000012313430B6000BD032205490B689343F7
:100BA0001A000223F5E70323014A11680B43E8E723
:100BB00004100240034A044913680B4003431360C6
:100BC0007047C04604100240FFF8FFFFF021034ABF
:100BD00013688B43034313607047C0460410024000
:100BE00010B50620FFF796FF0620FFF78BFF0020C9
:100BF000FFF7ECFF0020FFF7DDFF00F031FE0120E2
:100C000000F036FE0620FFF7AFFF034B034A1360E8
:100C1000034A136010BDC046006CDC0210000020C7
:100C20000C000020054B4209D2181F2318401E3B20
:100C3000834011680B4313607047C04600100240A8
:100C40001F21430908401E398140034A9B181A6836
:100C50008A431A607047C04600100240F7B51D0075
:100C60000AAB1B881600019303680F000400984725
:100C70000300DC331C60089B0200C360099BC83280
:100C80000361019B07608382064B46600367064B46
:100C90008560C366054B83660023136053609360D1
:100CA000D360FEBDB50E00081F0F0008A10F00089D
:100CB000030010B5DC331B685B6A984710BD37B57D
:100CC0000400069DDC3424680095A468A04737BD65
:100CD00037B5002504000368C582DB792A002900A6
:100CE0000095FFF7ECFF2300DC331B6829005B68ED
:100CF00020009847E369AB4200D0984737BD10B554
:100D00000400DC342468E469A04710BD10B5040079
:100D1000DC342468246AA04710BD030010B5DC331E
:100D20001B681B69984710BD030010B5DC331B68B6
:100D30009B69984710BD030010B5DC331B685B69E5
:100D4000984710BD70B5050003680400D979838FFA
:100D5000826B2C3599420ED20B000021FFF7CFFF9A
:100D600002232B702368D979A36B5A18A38FA2632F
:100D70005B1AA38770BD0021FFF7C1FF2200443238
:100D8000137859424B4102332B7000231370A38711
:100D9000A363EFE70300F0B5050004000E0087B081
:100DA0006833483505932B6827009C462300383369
:100DB000049363463C370397002B07D13100200092
:100DC000039B049A00F060FC07B0F0BD31786B79AA
:100DD0002A790B409A4204D0059B08359D42E2D106
:100DE000ECE7230040330093310020006746039B6B
:100DF000049AB8470128EFD8E6E710B501220400AD
:100E00000021FFF78AFF00232C34237010BD70B53A
:100E10000368828FC58EDB790400AD1A9D4200DD28
:100E20001D00A36BAEB29A18002133002000FFF71B
:100E30006DFF864205D02000FFF7DFFF0120404212
:100E400070BDA38FA8B2F618A687F9E770B503693D
:100E500004008363CB798A791B02134383870D00D7
:100E6000FFF798FF002821D0EB79AA791B021343E2
:100E700013D02268A08FD1790022834206D99042F4
:100E800004D001F0E5F94B425941CAB22300443382
:100E900020001A70FFF756FF70BD1A0019002000DD
:100EA000FFF72DFF04232C342370F5E72000FFF714
:100EB000A4FFF1E770B500250400012229000564B4
:100EC0000600FFF738FF230036331A7801331B780A
:100ED00030361B021343AB4204D131002000FFF730
:100EE000B5FF70BD32787F2AF7D8A28A9A4203D222
:100EF0002000FFF782FFF4E729002269A587A2639B
:100F000022682000D2799A42694122000B002C32DB
:100F10000533137029002A00FFF70DFFE1E770B5D4
:100F200005002C352B780400062B11D0072B26D07A
:100F3000052B21D1FFF76BFF002808DBA28FE38E82
:100F40009B1A2268D279934201DC06232B7070BD74
:100F5000FFF75DFF0028FADB210020003031FFF7AA
:100F600019FF002807D0002320001A001900FFF7FE
:100F7000C6FE0423EAE72000FFF73FFFE7E7002370
:100F80001A001900FFF7C2FE00232B70236C002B00
:100F900003D0210020003031984700232364D6E796
:100FA00070B505002C352B780400032B06D0042BDC
:100FB0000BD0022B21D1FFF7C5FE70BD0723002205
:100FC0002B701100FFF7B7FEF7E70600036C303611
:100FD000002B01D0310098473378002B0AD1737869
:100FE000052B07D1230032331978AA331B68200060
:100FF0005B68984700232B70DFE7FFF7FEFEDCE716
:1010000010B50C78002C14D18A78C97809021143E4
:101010007F290CD80300C9B28175DC331B68013409
:101020001A0030321278002A01D05B6898472000FD
:1010300010BD0024FBE7F8B5CA788B7812020400D3
:101040000D001A4310D003680D26587C00239842E7
:1010500001D80020F8BD31005943676879184979F3
:10106000914203D00133F2E701235B420133DBB24B
:10107000E375002B0CD123002600DC331B68200015
:10108000DB68C83698473368002B1CD10120E1E7A4
:101090000D22534362680D3BD318002217001979C3
:1010A0009142E8D99E7A597AD87A36020E43197B52
:1010B000000406430906314310014158002900D0BD
:1010C0000F700132EBE700232700A3642365A365BB
:1010D0002366D8373368002B05D0E978AA7809024F
:1010E0002000114398470436B742F3D1CEE7198860
:1010F00010B5012901D901211980C17D1468002989
:1011000008D00D22514343685B180D3B5B79237077
:10111000012010BD2170FBE7F8B50D261D00C37D31
:101120004C795E4343680D3E9E190B7924021C43A3
:1011300033790022A3422BD9B77A737AF27A3F022D
:101140001F43337B120417431B0624013B431B1927
:10115000CC788A781E79240214430022A64217D93B
:101160001A68002A12D014700300D8331B68002BB1
:1011700008D0CA788C78120222430C794979090286
:1011800021439847002301222B8001E0002CEBD063
:101190001000F8BD70B50D24C57D40686C430D3C52
:1011A00004194D79087926792D0205430020AE42B5
:1011B00017D901301880A57A607AE37A2D020543A9
:1011C0001B041D434B79207B0C791B020006234333
:1011D00028431B011B58191E00D0197801201368E1
:1011E000197070BD1988022901D9022119800023C4
:1011F000116801200B7012685370704710B514000D
:101200001A88022A01D902221A800979FFF78CFD77
:10121000431E9841002223681870236801205A70E9
:1012200010BD10B501220979FFF777FD012010BD2F
:1012300010B500220979FFF770FD012010BD0000F4
:10124000F0B58FB004931400CA788B781202134360
:101250000600120A022A13D0032A00D144E100201A
:10126000012A0BD1336819782360049B1A880B1C60
:10127000914200D9131C049A138001200FB0F0BDD5
:101280000269DBB222600592049A14880D2253434E
:101290004268D118D25C0391131CA24200D9231CCE
:1012A0009BB21A0003990598029300F083FD029AFD
:1012B000059B944663440193039BA41A1A780CABD4
:1012C000DA800023A7B20693039B1A796B461B8B27
:1012D0009A420AD805980CAB0222991D023000F000
:1012E00069FD049B029A1A80C7E7069B039A1B01BB
:1012F0000B93039B917A5B7A090219431300D27A0C
:101300001B7B120411431B060B9A0B439B189D6811
:10131000002D19D02B781C1CBB4200D93C1CA4B258
:1013200022002900019800F045FD019B3F1B1B197D
:101330000193029BBFB2E418A3B202930CAB9A1DB7
:1013400011882B785B1813800023039A0793039B63
:10135000917A5B7A090219431300D27A1B7B12043B
:1013600011431B060B9A0B439B186A461979928B03
:10137000914202D8069B0133A5E7DA681523079945
:101380004B43D418D35C1D1CBB4200D93D1CADB2ED
:101390002A002100019800F00DFD019B7F1B5B19C5
:1013A0000193029B2178ED18ABB202930CABDA8863
:1013B000BFB28A1892B20892DA80A37B627B1B02CA
:1013C000E17B1A43237C090411431B06194322D0F5
:1013D000A27C657CE37C12022A43257D1B041A4310
:1013E0002D061543BD4200DD3D00AEB2320001982E
:1013F00000F0E0FC019BBF1B9B190193029BBFB255
:101400009E19B3B20293A37C627C1B021A43089B11
:10141000D2180CABDA80002308936B4622791B8C20
:101420009A4202D8079B01338FE7A17A637AE27A66
:1014300009021943120411430F22237B1B060B439D
:1014400008994A439D189B5C1E1CBB4200D93E1C58
:10145000B6B232002900019800F0ACFC019BBF1B22
:101460009B190193029B0CAAF618B3B20293D18880
:101470002B78BFB25B189BB20993D3802B7AEA79A1
:101480001B02697A1A43AB7A090411431B061943FC
:1014900027D02A7BEE7A6B7B12023243AE7B1B0491
:1014A0001A4336061643BE4200DD3E00B3B21E00AC
:1014B0001A0001980A9300F07DFC0A9A019B944659
:1014C0009B1901930A9B099AFF1A029BBFB26344BE
:1014D0009BB202932B7BE97A1B020B439B180CAA4D
:1014E000D380089B013397E7DBB20569002B10D14D
:1014F0000933049AAB70053BEB702B7011880A1C02
:10150000994200D91A1C049B1A8003236B70256032
:10151000B3E68768013B381E00D1AFE6F2680020D1
:101520009A4200DCAAE64A7908791349120202437A
:1015300000208A4200D0A1E69B00DE59300000F076
:10154000DFFC01304000049BC0B228701A88131CD5
:10155000824200D9031C049A13800023049A128843
:101560005208013A9A42D0DDF15C5A00AA189170F3
:1015700000210133D170F1E7090400001988022924
:1015800001D9022119800023116801200B70126813
:101590005370704710B5040002000023C83498004F
:1015A0002058002807D0884209D00133042BF6D1F7
:1015B0000120404210BD32339B009950FAE70020D1
:1015C000F8E7000070B505004878092812D800F047
:1015D000C5FC0D111111110F0B110905064C280046
:1015E000A04770BD054CFAE7054CF8E7054CF6E757
:1015F000054CF4E70020F4E737100008EF1000086E
:1016000041120008E51100080110000870B54C787F
:1016100005000A2C08D00B2C08D00020844202D1EF
:10162000034C2800A04770BD024CFAE7024CF8E7D3
:101630007D150008951100081911000870B5050006
:101640004878012805D003280CD0002813D00020AA
:1016500070BDC8788C7800022043084CF7D1280070
:10166000A047F5E7CC788878240204430020844220
:10167000EED1034CF3E7034CF1E7C046311200080A
:1016800023120008FD11000870B50D7860262C00AB
:101690003440354212D1413E3540012D08D0022D53
:1016A00009D0002D02D1FFF78DFF0400200070BD8E
:1016B000FFF7ACFFF9E7FFF7C1FFF6E70024F5E716
:1016C00005480368002904D0044A13439BB2036011
:1016D00070475B045B0CFAE7585C00400080FFFF3A
:1016E00010B50948FFF79EFA0023084A084913601D
:1016F0000B60084908480B609C231B021360802282
:10170000064B12021A6010BD97030000405C0040B7
:10171000505C0040445C0040D4090020585C00400C
:101720000023F0B54F1CC6189A4200D8F0BDFD5CEE
:10173000CC5C2D022C4334800233F4E70123F0B556
:1017400014000600DA401C4018421ED10E0013009F
:101750000500002B11D03788013B2F80023602355F
:101760009BB2F6E73B88013D9BB233701B0A737056
:101770000237ADB20236002DF4D1520080188A181B
:10178000002C01D013780370F0BD0F001500F2E7B4
:10179000FEE7704710B5164B164A17498B4218D30F
:1017A0000021164A934217D38023154A9B001168E3
:1017B000144C0B431360144B9C420FD3134C144B2B
:1017C0009C420ED3FFF784F8124C134B9C420BD370
:1017D00010BD01CA01C3E1E702C3E3E708CC9847A3
:1017E000E9E708CC9847EAE708CC9847EDE7C04618
:1017F000000000203424000814000020D80A002033
:1018000014ED00E0342400083424000834240008D7
:10181000342400083424000834240008024B000259
:10182000000A18607047C04614E000E00421034A33
:10183000084013688B4303431360704710E000E0D7
:101840000223024A11680B431360704710E000E066
:101850000123024A11680B431360704710E000E057
:101860001023024A11680B431360704700200240A6
:101870000721034A13688B43034313607047C04634
:101880000020024080231943014B19607047C04675
:101890004C5C00403E2A10D92023013A9205D20E1A
:1018A000500120301A43074BC9001B6892029BB2BB
:1018B000C918054BC9180A807047013252085000F8
:1018C00080B2F0E7505C004006600040F0B50500D3
:1018D000802085B002AC800020808020C000608025
:1018E0000020A080C0207F26C000E0800E4033484A
:1018F000B40024182068324F52003840304380B280
:10190000206027682F48384002AFD25B2E4F10432B
:1019100080B24AB2206094462C48002A22DB002E76
:1019200020D00068F20080B212182948298B1218C2
:10193000118028001A003100FFF7ACFF0A9B002B32
:1019400036D12368234A134023602368224A1A4071
:10195000C0239B0153403B439BB223602B8BC01899
:10196000288323E00268298B92B20191F100891843
:101970001A4A8918019A0A800A9A002A04D00C226D
:1019800072430A99AA189166226815490A40226092
:1019900022681449114020224A403A4392B2226000
:1019A0002A8B9A182A836246002ABADA05B0F0BD5B
:1019B0000C235E430A9BAE19F366C2E7005C00404D
:1019C000808FFFFF8F89FFFF8080FFFF505C00400A
:1019D000046000408FCF00008FBF00000060004017
:1019E000CF8F0000BF8F000070B50B4A0B4E0C4923
:1019F0000C4D0D4C136833400B439BB213601368BE
:101A00002B400B439BB208C2A242F3D10368DB799F
:101A100020335B00038370BD045C0040BF8FFFFF79
:101A20008080FFFF8FBFFFFF205C004030B5224861
:101A3000002926D1214C224D23681D401023002A65
:101A400000D1DB186B401BB203439BB223601B4BDE
:101A50008900C918002A03D10B681A4C23400B6077
:101A6000194B0C681C40531E9A4153425B0B5A039E
:101A7000C0239B01D218624012B2024392B20A60A4
:101A800019E04BB2002BE2DA7F2319400B4B89009F
:101A9000C9180B680A4C1C401023002A00D1DB181F
:101AA00063401BB2184380B20860002A03D10B6860
:101AB000064A13400B6030BD8080FFFF005C004091
:101AC000BF8F00008FCF00008FBF0000CF8F0000BE
:101AD0004BB2002B0CDA7F2319400A4B8900C9183E
:101AE000302308681840103843425841C0B270474C
:101AF000044B8900C918C02308689B011840024B99
:101B0000C018F1E7005C004000F0FFFF4BB2002B73
:101B100011DB0C4B0C485A540C4B8900C9180C4B68
:101B2000002A09D00A681A40802392B29B015340D0
:101B300003439BB20B6070470A681A4092B2C023FD
:101B4000F4E7C046D00A00208080FFFF005C004020
:101B50008FBFFFFFF8B50C001D007F23110030225E
:101B60001C40134BA600F6183368134093421CD058
:101B70001048114F02003B68E4009BB2E3181B18A9
:101B8000188880182A00FFF7CBFD39680B4B89B203
:101B900064180B4AE4183368258013403022534000
:101BA000084A134333602800F8BD0025FBE7C04610
:101BB000005C004000600040505C0040026000405B
:101BC000BF8F0000808000001000C022F8B51C000C
:101BD0001E4B8D00ED182B6892010F0013409342AD
:101BE00032D01B4ACE0013681A499BB2F3185B1817
:101BF0001B889B059B0D9C4206D913689BB2F3186A
:101C00005B181C88A405A40D136822009BB2F6186B
:101C1000114BF6183188114BC918FFF78FFD2B684F
:101C20000F4A1A40802313432B600E4BDB5D002BC1
:101C300008D12B680C4A1A40C0239B0153400B4A21
:101C400013432B602000F8BD0024FBE7005C00403C
:101C5000505C0040066000400460004000600040AE
:101C60000F0F0000D00A00208FBF0000808000000E
:101C7000F7B5354F04003D68ABB201936B0506D54F
:101C8000324B3B6040230383FFF722F8F7BD2B0460
:101C900020D50F2310221D402D4BAE00F6180199C0
:101CA000019B134011423AD033680F3A1B0506D509
:101CB0000200082330322900FFF786FF02220323A7
:101CC0006B439B181A339B001B59002B30D0290003
:101CD00020009847019B1B0505D51E4B3B60236ADE
:101CE000002B00D09847019BDB0405D51A4B3B60C5
:101CF000636A002B00D09847019B184D9B0505D5C2
:101D0000A36A174A3A60002B19D09847A36A002BA0
:101D100015D080232A689B0013432B60B6E73268F6
:101D200010490A40802109020A4332601A00C6E7BE
:101D300033680C4A1A40802313433360CAE72B6888
:101D4000094A1340E9E7C046445C0040FFFB00003D
:101D5000005C0040FFF70000FFEF0000405C004027
:101D6000FFFD00000F0F0000FFFDFFFF30B5032A4D
:101D70000CD903000B439B0719D103680C68A342DD
:101D800015D1043A04300431032AF6D8551E002A2E
:101D90000BD0002303E05A1C9D4206D01300C25C06
:101DA000CC5CA242F7D0101B00E0002030BD551ED5
:101DB000EFE7C046F0B5C64600B50F2A41D9032764
:101DC0000D003E0005430C0003002E402F423DD184
:101DD0001500103D2D09A8462D01AC468444276806
:101DE0001D001F6067685F60A7689F60E768103428
:101DF000DF6010336545F2D145460F230C240135D1
:101E00002D01491913404519144222D08C59AC5167
:101E100004369C1B032CF9D8043B9B0801339B0020
:101E2000ED18C91803231A40561E002A06D00023B5
:101E3000CC5C1A00EC5401339642F9D180BCB84610
:101E4000F0BD0500561E002AF1D1F7E70500561E29
:101E5000EDE71A00F6E7C046F0B50500830749D064
:101E6000541E002A45D003000326CAB202E0013501
:101E7000013C3ED301332A703342F8D1032C30D9D0
:101E8000FF220A40150215432A0415430F2C34D9AA
:101E90002700103F3F093E01B4461E001A001036CD
:101EA0006644156055609560D5601032B242F8D135
:101EB00001373F01DB190F270C22274022403C004D
:101EC000002A0ED03E1FB608B400A4461A001C1DFE
:101ED000644420C2A242FCD103240136B6009B19FF
:101EE0003C40002C05D0C9B21C19197001339C422A
:101EF000FBD1F0BD03001400C0E72700E2E7C046B5
:101F000010B583070AD00300032102E001330B421E
:101F100005D01A78002AF9D1181A10BD03001968E3
:101F20000C4A0D4C8A188A4322420FD15968094A3B
:101F300004338A188A43224208D15968054A043377
:101F40008A188A432242F1D000E001331A78002A2D
:101F5000FBD1E1E7FFFEFEFE8080808002B4714687
:101F600049084900095C49008E4402BC7047C046DC
:101F7000002243088B4274D303098B425FD3030AC8
:101F80008B4244D3030B8B4228D3030C8B420DD3DB
:101F9000FF22090212BA030C8B4202D31212090269
:101FA00065D0030B8B4219D300E0090AC30B8B42A7
:101FB00001D3CB03C01A5241830B8B4201D38B0355
:101FC000C01A5241430B8B4201D34B03C01A5241FA
:101FD000030B8B4201D30B03C01A5241C30A8B423D
:101FE00001D3CB02C01A5241830A8B4201D38B0228
:101FF000C01A5241430A8B4201D34B02C01A5241CC
:10200000030A8B4201D30B02C01A5241CDD2C3093D
:102010008B4201D3CB01C01A524183098B4201D3B9
:102020008B01C01A524143098B4201D34B01C01AA4
:10203000524103098B4201D30B01C01A5241C3081C
:102040008B4201D3CB00C01A524183088B4201D38B
:102050008B00C01A524143088B4201D34B00C01A77
:102060005241411A00D20146524110467047FFE7E3
:1020700001B5002000F0F0F802BDC0460029F7D0FD
:1020800076E7704703460B437FD4002243088B4218
:1020900074D303098B425FD3030A8B4244D3030BEF
:1020A0008B4228D3030C8B420DD3FF22090212BAB4
:1020B000030C8B4202D31212090265D0030B8B4230
:1020C00019D300E0090AC30B8B4201D3CB03C01A1A
:1020D0005241830B8B4201D38B03C01A5241430BF5
:1020E0008B4201D34B03C01A5241030B8B4201D3E5
:1020F0000B03C01A5241C30A8B4201D3CB02C01A50
:102100005241830A8B4201D38B02C01A5241430AC7
:102110008B4201D34B02C01A5241030A8B4201D3B6
:102120000B02C01A5241CDD2C3098B4201D3CB015D
:10213000C01A524183098B4201D38B01C01A52410C
:1021400043098B4201D34B01C01A524103098B4210
:1021500001D30B01C01A5241C3088B4201D3CB00FB
:10216000C01A524183088B4201D38B00C01A5241DE
:1021700043088B4201D34B00C01A5241411A00D28E
:1021800001465241104670475DE0CA0F00D04942F7
:10219000031000D34042534000229C4603098B4267
:1021A0002DD3030A8B4212D3FC22890112BA030AEF
:1021B0008B420CD3890192118B4208D38901921171
:1021C0008B4204D389013AD0921100E08909C309F6
:1021D0008B4201D3CB01C01A524183098B4201D3F8
:1021E0008B01C01A524143098B4201D34B01C01AE3
:1021F000524103098B4201D30B01C01A5241C3085B
:102200008B4201D3CB00C01A524183088B4201D3C9
:102210008B00C01A5241D9D243088B4201D34B00E4
:10222000C01A5241411A00D20146634652415B1026
:10223000104601D34042002B00D549427047634607
:102240005B1000D3404201B5002000F005F802BD4C
:102250000029F8D016E770477047C04653454747F6
:102260004552004A2D4C696E6B003132333435369D
:10227000008D01020408102040801B36637C777BB0
:10228000F26B6FC53001672BFED7AB76CA82C97D72
:10229000FA5947F0ADD4A2AF9CA472C0B7FD932603
:1022A000363FF7CC34A5E5F171D8311504C723C307
:1022B0001896059A071280E2EB27B27509832C1A4B
:1022C0001B6E5AA0523BD6B329E32F8453D100EDA5
:1022D00020FCB15B6ACBBE394A4C58CFD0EFAAFB89
:1022E000434D338545F9027F503C9FA851A3408F51
:1022F000929D38F5BCB6DA2110FFF3D2CD0C13EC69
:102300005F974417C4A77E3D645D197360814FDCFD
:10231000222A908846EEB814DE5E0BDBE0323A0AE1
:102320004906245CC2D3AC629195E479E7C8376D65
:102330008DD54EA96C56F4EA657AAE08BA78252E8A
:102340001CA6B4C6E8DD741F4BBD8B8A703EB56613
:102350004803F60E613557B986C11D9EE1F8981104
:1023600069D98E949B1E87E9CE5528DF8CA1890DF3
:10237000BFE6426841992D0FB054BB160705810294
:1023800040000100000000000000000705020240BC
:10239000000100000000000000000904000002FF2E
:1023A000FFFF007C23000800000000000000000088
:1023B0000000000001000000000000009A23000857
:1023C00009020000010100C032B023000812010020
:1023D0000200000040661301010001010203012414
:1023E00038357BB4070EB65843372BB8BBCA05A2A5
:1023F000C6857DB01F2B91DEBCA2FDD8ED7200001A
:10240000E116000885180008CD180008E919000831
:102410002D1A00080D1B0008D11A0008551B0008D2
:10242000C91B0008711C0008C1160008000000004C
:0424300000000000A8
:102434005C220008632200086A22000800127A0065
:0424440000127A0008
:0848000010000000564D534466
:040000050800179543
:00000001FF
